:020000040000FA
:10000000D8120020D5000000DD000000C53F000030
:1000100000000000000000000000000000000000E0
:10002000000000000000000000000000E1000000EF
:100030000000000000000000E30000004560000038
:10004000E7000000E7000000E7000000E700000014
:100050005162000019030000195A0000355A0000CF
:10006000C9600000E1600000E7000000E700000058
:10007000E7000000E7000000E7000000E7000000E4
:10008000E700000045580000F1590000E7000000BB
:10009000E7000000E7000000E7000000E7000000C4
:1000A000E7000000491400005518000091650000A9
:1000B000E7000000B1520000E7000000E700000088
:1000C0000348854600F016F90048004745680000DF
:1000D000D81200200448804704480047FEE7FEE7A6
:1000E000FEE7FEE7FEE7FEE7B9600000C1000000A2
:1000F00030B50B46014600202022012409E00D46C0
:10010000D5409D4205D31D469540491B2546954047
:1001100040191546521E002DF1DC30BD70B500248B
:100120002546002801DA01244042002901DA012590
:100130004942FFF7DDFFAC4200D04042002C00D026
:10014000494270BDF0B51FB40646002082B0054696
:100150004024019100901BE0019922460F46304651
:1001600000F0B7F8049A059B801A994110D3104605
:100170001946224600F079F8361A8F410197224637
:1001800001200021009F00F070F838184D410090C8
:100190002046641E0028DFDC019B00982946324679
:1001A00007B0F0BDF8B500242546002904DA0E4654
:1001B000012400214042B141002B04DA1E460023F5
:1001C00052420125B341FFF7BDFF8C4617461E463C
:1001D000AC4203D0002540428D41AC46002C02D0F9
:1001E000002657429E4161463A46334601B0F0BD73
:1001F000F0B51FB486B000200090019002900698E0
:10020000069980B204900798090C02040014114367
:1002100007900027089D099806913E463C460390AA
:100220000398A9B20204000C039004982D0C154306
:1002300048430021224600F018F8C71971411034D4
:100240000E46402CECDB3846029A00F00EF8009A7D
:10025000019B801800905941029801911030029042
:100260004028CCDB00980BB0F0BD10B5202A04DB91
:100270000146203A9140002010BD914020239C1A55
:100280000346E3401943904010BD03460B439B07D0
:1002900003D009E008C9121F08C0042AFAD203E0FB
:1002A0000B780370401C491C521EF9D27047D2B221
:1002B00001E00270401C491EFBD270470022F6E7A5
:1002C00010B513460A4604461946FFF7F0FF2046CC
:1002D00010BD10B5202A04DB0846203AD04000218A
:1002E00010BD0B46D340D0402024A21A91400843B1
:1002F000194610BD064C0125064E05E0E36807CC03
:100300002B430C3C98471034B442F7D3FFF7DCFE84
:10031000486B0000686B000070B501223E49202048
:1003200008603E48C1681143C1603D4C032020561F
:10033000022103F0CDFD20783A4D002802D0401E66
:1003400020705EE037484030006961784900091943
:100350002031897949000919C8806078401CC0B2F1
:100360006070A178884201D3002060700006C00D43
:1003700000192030C1792170217901290AD0A9689A
:1003800009090901A96029688079090A090201435C
:10039000296070BD8079052818D006281ED0A9686C
:1003A00009090901A96020490A6BF7239200920804
:1003B0009B051A400B6BFF26B605B34313430B6333
:1003C0001A490B2816D00C2817D01AE0012001F08A
:1003D000C5FCA86800090001801C06E0012001F0AE
:1003E000BDFCA86800090001C01CA860022002F042
:1003F000D1FB06E00868302201E00868C022104303
:10040000086028686178000A490000020919203153
:1004100089790843286070BD80E200E00030014027
:10042000540D002000780040C0F0004080400140A2
:1004300070B5134C292109012046FFF73FFF03F057
:10044000A7FC2546A035287303F0A2FCE876287B9C
:1004500003F048FDE87E03F045FD0520094AC00190
:10046000A28001212018417222817D221201628125
:10047000297008228273044802780A43027070BD12
:100480000C01002088130000F800002070470000D5
:10049000FEB5834F814EB978182032464843483A1A
:1004A00080180922D201B418A0630C30E063480020
:1004B0007C4940180190304604F0CCFF0C21A06B21
:1004C000FFF7FCFE0C237849A26B019802F010FCA8
:1004D000304601F007F8304603F040FF002876D19F
:1004E000304605F017FEF978704D002928D1A06B31
:1004F0000178091F0B0006F08FF810202428416BAB
:100500006F878B8F938309737F7B7796287CB9786D
:100510000F22814244D16648E16B80784870E06BDD
:1005200002700120A874292040013018417A491C2A
:100530004172287C401C287478E0304603F09CFF10
:1005400071E0304604F0EAFC6DE0417800296AD1A0
:1005500001F032F8A16BC97A884264D101221320DC
:1005600000218001FA7030180170A06B4078E16BB7
:100570004870E16B06200870AA7457E0E87B009091
:10058000002802D1304605F0ADFFB9780098072267
:10059000814205D1A87F002802D13078042805D0F7
:1005A000E16B02200870E06B42703CE0E06B02708F
:1005B0003A48E16B807848700120A874E87B401CC1
:1005C000E87330464030C17A491CC1722EE064E0C5
:1005D000304604F02BFE26E0304604F037FA22E0E5
:1005E000304604F0E1FD1EE0304604F093FD1AE0D1
:1005F000304603F0AFFF16E0304604F091F812E009
:10060000304604F073FB0EE0304604F02DFD0AE0A6
:10061000304604F0DBF806E0304604F0E5FC02E08A
:10062000304604F079F9A87C002830D00020A87466
:10063000E06B00F0C1FF0146E06BC27A5140C1722D
:100640000020401CC0B20A28FBD3002501210C2346
:100650004907E26B019802F056FB6D1CEDB2032DC9
:10066000F4D31320800130180090407800280AD07D
:10067000272040010025301845740574222005F01C
:100680009FF8009845700C21E06BFFF717FEB878D3
:100690000321401CFFF72CFDB970FEBD4C04002067
:1006A00029000020866900000C0000202C09002091
:1006B000F8030020F8B5164F164E002418206043AA
:1006C000C0191821FFF7FAFD03F062FBA500705175
:1006D0007D2140B2090103F0FBFB705D03F002FCD9
:1006E000641CE4B2032CE9D30948002188308173EB
:1006F0000849012054394874054807494830C16306
:100700001231416409390164002000F04BFFF8BD4B
:1007100004040020800900208C69000010B520210D
:100720000D48FFF7CBFD0C48002101624162816258
:100730000A48C08805F0F2FE07490948086103F03D
:1007400027FB054C2034207103F0CCFB0020C04374
:10075000A070E07010BD0000D80300200C01002044
:10076000C8AF000010B503F035FB0649064A4868DB
:10077000401C4860904204D3002048600878401C28
:10078000087010BD0800002000D683000248002138
:1007900001604160704700000800002010B5044669
:1007A00001F05CFD044908800121A8200155E08882
:1007B0002083A08010BD00000000002010B504467A
:1007C00084211C30FFF77AFD2146B63100200880D5
:1007D000488016398882B22210530522D20108239C
:1007E000A218E0609373107320702083087248721F
:1007F0000220A070002010BD70B505228178154D33
:10080000064600240C206043285C81421BD1002C4A
:1008100008D0304600F022F8002803D0304600F01F
:10082000BDF80EE00C2044436419616830468847E7
:1008300000280CD00848407A002808D1A16830462A
:100840008847012070BD641CE4B29442DAD30020D2
:1008500070BD0000D46800008C030020F8B5054688
:10086000002000900520C0012E18707A012801D0C8
:100870000020F8BDB07A0128FBD02C46A034A07E21
:10088000002809D021460327E031012846D002285C
:100890005AD0032871D16EE039480169012212064D
:1008A000114301610169520011430161354F386BF9
:1008B00080210843386334484068804732484069A3
:1008C00080473148403000688047386B0721490233
:1008D00088430321890240183863386B0821084394
:1008E000386329484030C168284807468847264869
:1008F0004030C1693846884723484030416938460E
:1009000088470127FF35F7722148013568601B20B1
:100910009B212056890003F0DBFA21E0887D8107C6
:10092000890F012917D14006C00E012813D128468E
:1009300004F066FF00280ED01B202056154903F056
:10094000C7FA0220A07606E0887D810703D1400621
:10095000C00E062806D0E07E03F098FA00280CD0DE
:10096000A7760AE0072068700120B0720A48803537
:1009700068620120F8BD002070720098F8BD000088
:1009800000400140C0F0004040020010C8010020BB
:100990006D58000026020000BD0900000189064ACA
:1009A000914205D90523DB01C3181B7A012B01D025
:1009B000C1807047C2807047204E000070B500258E
:1009C000234BFF2299322946D45C0CE00C224A4387
:1009D000D218FF328132D67E012E09D0128C82428B
:1009E0000CD0491CC9B28C42F0D8002D2ED005E0A5
:1009F000D68B8642F5D8128C8242F2D30C22514318
:100A0000C918FF318131134ACB7ED3738B7E937328
:100A100000231374CB8B203A53869086888CD08623
:100A2000888C0C4910870C220E318818FFF72DFC9A
:100A30000848E038817E022211438176417FFD2201
:100A400011404177417FFB2211404177012070BD69
:100A50000C010020EC020020F8B5314C00262546A0
:100A6000A0352878002815D02046FFF7C5FE0028BD
:100A70000FD02E70E068002807D120896189484393
:100A80007D21C900FFF74AFBE06020612448FFF7A1
:100A900085FEF8BD287A234F00280CD0204600F0B0
:100AA0005FF921487E804660067028780028F0D1E2
:100AB000287A0028EDD178887D21401C80B2C900B9
:100AC00078808842E5D916487E804078052812D083
:100AD000062810D0022801D00128DAD113490320BA
:100AE0000856401CD5D10120E660114928700A78CB
:100AF00002430A70F8BD204602F0C6F90521C9017B
:100B00006118897BE068084D4843C0082061287857
:100B10000328EFD3204601F04DFC2E70F8BD0000F5
:100B20000C0100200000002008000020F803002035
:100B3000F8000020F8B5044606465248B636C069AB
:100B40008047002737807780384601F0C9F80120B8
:100B500001F0BAF8384601F09FF84A4D803D696AC5
:100B6000642088474748C0698047012001F0B8F8F1
:100B7000012001F0A9F8384601F08EF800210B2081
:100B800001F054FC696AFF20F53088473D48C06990
:100B90008047696AFF20F530884725468035EF8514
:100BA000E76019E0E88D1921401C80B24901E88511
:100BB00088420CD90420607033482081334860811A
:100BC0006F62A770EF850B2001F05CFC57E02D48A9
:100BD0008038416A012088472A48C06980470B2035
:100BE00001F0FAFCFF2191318842DBD8284802F05D
:100BF000E7F924488038416AFF205F308847214860
:100C0000C069804701F0D0FC22494018224988423F
:100C100001D81F4800E01C4830801A48C06980474E
:100C2000194802F0CDF917488038416AFF205F303B
:100C300088471448C069804701F0B6FC174941183D
:100C40001748814208D831881148814204D10821CF
:100C50006170144969620DE001F0A6FC0F4941186A
:100C60000F48814202D9002001F03AF80B20607051
:100C700005486F6220817D2000016081A7700120FE
:100C8000F8BD00000002001088130000DC05000021
:100C9000282300005BE0FFFF060700006BEEFFFF6C
:100CA000E6030000C12F0000FEB5044605466C3087
:100CB00001900020B4350290287826460427A036FB
:100CC000030005F0A9FC06040E222C34444B0C2032
:100CD0003056BE2103F0FCF8052028700120687012
:100CE0003CE00199012088720026334632463146A5
:100CF0000096019802F0CAFC002804D00220287057
:100D0000019886722AE0A770FAE7204602F02BFDD0
:100D100000281AD00B2818D0607003201DE06178DD
:100D2000204602F0B3FB00280FD02F7016E0617848
:100D3000204602F069F9002807D0707A00280DD00B
:100D40000020A0700120029008E0A77006E0307B30
:100D500003F09CF8002801D0687828700298FEBD46
:100D600070B50446A0340546A17A002280300029DF
:100D700011D0042915D0052920D006290AD12272C4
:100D8000012060721248A27201784908490001707E
:100D900002F0D6F870BD0421A1726272C28522747D
:100DA00070BD416A002901D0288B88470C2020564D
:100DB000322103F08DF80520A07270BD207B03F076
:100DC00065F80028F9D0284600F006F970BD00004B
:100DD000F800002070B509240021B230084D0278D7
:100DE000CB00EB5C9A4205D1C90049194968884794
:100DF000064603E0491CC9B2A142F1D3304670BD9A
:100E0000106900000149C18070470000881300008C
:100E100010B5104C03202056022103F059F86078D9
:100E2000401CC0B26070A178884201D3002060707D
:100E30000006C00D00192030C179217006498A686A
:100E4000120912018A600A688079120A12020243AA
:100E50000A6010BD540D002000780040FEB5484CDB
:100E6000494E2068019047488588F08885420AD01D
:100E70004448A030007B03F009F8002879D02846C8
:100E800005F04CFBF58001F08FFB07463E480090D3
:100E90002046638922893946173005F0A7F9E07D9D
:100EA0000125002804D025770B2005F01FF802E06B
:100EB0000B2000F08DFB34483946401C0090204642
:100EC000E389A289183005F091F9207E002804D02A
:100ED00025770C2005F00AF802E00C2000F078FBE2
:100EE000072001F079FB01462748BB23801C0090B6
:100EF00020468C22193004F07DFC082001F06CFBA8
:100F000001462148A223C01C0090204678221A30B6
:100F100004F070FC607E002806D1A07E002803D17A
:100F20001A480068C00704D065770E2004F0DEFF81
:100F300002E00E2000F04CFB03CC0027083C0843E5
:100F4000307917D0002802D11148477407743571E1
:100F500001F08AFF0A49203108468078C8701120C4
:100F600000F020FB06CC0198083C401A974100D2C3
:100F70002575FEBD0028FCD0377101F06DFFFEBD68
:100F8000D80300200C0100202000002000F20040C7
:100F90002C09002030B50D4900220B7F0C48002B96
:100FA00008D001230B4C037025781D432570427235
:100FB0000A7702E00178002901D0002030BD417A93
:100FC000012900D14272012030BD0000D803002069
:100FD000AC010020F8000020F8B5054601F0E4FA65
:100FE000014668780A24072801D0062800D1052484
:100FF0002F8BCE1B64213846FFF77AF802466243F6
:10100000002E00DA76422C4606210020A034B2429F
:101010000FDD627C521CD2B26274022A03D3A17229
:10102000AF806074F8BD0C202056322102F050FFD2
:10103000F8BD8035EA8D521C92B2EA856074072AA9
:10104000F1D3227C521CD2B22274E885032A01D348
:10105000A172F8BD0420A072F8BD000041780829F3
:1010600002D00249C18070470149FBE788130000A4
:101070002823000010B5AD210A5C0189002A18D18F
:101080000F4A914206D343890E4CA34202D3C28039
:10109000028110BD0C4A0D4B8A189A4209D242892E
:1010A0007D235B019A4204D307494942C1800181F3
:1010B00010BDC1808AB206498A42F9D9C18010BDEB
:1010C000F82A000070170000F0D8FFFF8813000016
:1010D000204E0000F0B58C002418E46B059DE779E4
:1010E0000F4E974205D8247A944202D91970705C49
:1010F00012E000290AD0012908D0C06BC1799142C1
:1011000006D8007A904203D9002002E0022000E0D5
:1011100001201870C0B2305C101A2870F0BD0000B9
:1011200083690000F0B585B00D46064601F05AF817
:1011300004462B482721401949014018407A401E97
:10114000C0B202907169B0696579401A0390F06885
:10115000009001907D214043C900FEF7C9FF21782E
:1011600048437D21C900FEF7C3FF07460122A2566E
:10117000019864215043FEF7D1FF0221615E381AC5
:1011800040187D21327FC900032A02D0092A0ED0DF
:1011900011E0029A002A009A04D0124B9A420AD314
:1011A000462508E0104B9A4205D32D2503E0462141
:1011B0006171E121C900227964235A43824201DD31
:1011C000104604E064225543854200DA2846039A1B
:1011D000101A884202DD012005B0F0BD0020FBE7B7
:1011E0004C040020C05D0000A8610000F7B5012498
:1011F00086B000200799039088427DD2002C7BD0D6
:101200000024481E16E114214843069984464018DC
:1012100001462039037A0A7D934205D9014601240B
:10122000143904F0F9FE03E1934203D1457A4E7D6F
:10123000B542F3D8934207D1457A4E7DB54203D1EA
:10124000857A8E7DB542E9D893420BD1457A4E7DA1
:10125000B54207D1857A8E7DB54203D1057B0E7EDE
:10126000B542DBD3934217D1457A4E7DB54213D1B7
:10127000857A8E7DB5420FD1057B0E7EB5420BD1AE
:10128000069D6646AE5945686E430546803DEF6E45
:101290002D6F6F43BE42C1DC93421BD1457A4E7D18
:1012A000B54217D1857A8E7DB54213D1057B0E7E6E
:1012B000B5420FD1069D6646AE5945686E43054658
:1012C000803DEF6E2D6F6F43BE4203D1857B8E7ED6
:1012D000B542A3D8934221D1457A4E7DB5421DD166
:1012E000857A8E7DB54219D1057B0E7EB54215D12A
:1012F000069D6646AE5900E0A3E045686E4305468C
:10130000803DEF6E2D6F6F43BE4207D1857B8E7E91
:10131000B54203D1C57ACE7DB5428AD8934223D156
:10132000457A4E7DB5421FD1857A8E7DB5421BD15F
:10133000057B0E7EB54217D1069D6646AE594568BF
:1013400000956E430546803DEF6E2D6F6F43BE42A4
:101350000AD1867B8F7EBE4206D1C67ACF7DBE4241
:1013600002D1009EAE4296DC934229D1457A4E7D51
:10137000B54225D1857A8E7DB54221D1057B0E7E81
:10138000B5421DD1069D6646AF5900974568064691
:101390006F43803E0495F56E0195366F7543AF42FD
:1013A0000ED1857B8F7EBD420AD1C57ACF7DBD42ED
:1013B00006D1049DB54203D1019E009DB542D2DC09
:1013C000934235D1427A4B7D9A4231D1827A8B7DDC
:1013D0009A422DD1027B0B7E9A4229D1069B62460E
:1013E0009D580246803AD36E4668126FAC461F463F
:1013F00075435743BD421BD1857B8F7EBD4217D1BC
:10140000C57ACF7DBD4213D1964211D19C450FD1F3
:10141000089A002A02D0012A06D009E0C27BC97EC0
:101420008A4200D2FAE603E0C27BC97E8A42F9D83A
:101430000298401E03990290884200D9E3E6481CB6
:10144000D8E609B0F0BD00000448026801210A4353
:10145000026042680A4342607047000080300140E9
:101460000023036041608160002A01D0092100E06F
:10147000012101607047016801221143016070473A
:101480000121C16070470121C1607047F0B500249F
:10149000059F069E079D002A00D00124002B01D045
:1014A00002221443002F01D004221443002E01D045
:1014B00008221443002D01D010221443089A002A58
:1014C00001D02022144300228260016184604068C0
:1014D0000007800F00D00120F0BD4268D207FCD188
:1014E00001607047F8B52A4E132189010924F37869
:1014F0004518E401002229780419002B0ED0B07899
:1015000081420BD1032912D0707800281DD0214FC1
:1015100001281CD0022824D07270F8BD032906D0FF
:10152000E16B02200870E16B06204870F8BD2A705C
:1015300019487270416A05208847BFF34F8F1849D8
:101540001648C860BFF34F8FFEE7012007E0E06B4D
:101550004270E16B062008700120B87402207070A0
:10156000F8BDA06B41780229FAD100F025F8A16BF3
:10157000C97A8842F4D1E16B02204870E16B062001
:1015800008702878401C287001207070B874F8BD6D
:10159000290000202C090020800100100400FA0519
:1015A00000ED00E0034A1178814201D051701070C3
:1015B000704700004C0400200246007800215318B8
:1015C0005B78491C5840C9B20A29F8D3704700001B
:1015D00070B5064C024660CC01200021083CFEF7A5
:1015E00044FEC24315408E4360C470BDD803002042
:1015F000FEB5064600206946087005460520000233
:101600003418E800052180190902401884468078C2
:1016100001284AD06046C0780290002845D0314663
:1016200008310191EB00052100209F19090279186A
:10163000C97802468E4617E0012D07D00521BB1858
:1016400009025B181B79132B0AD207E0019B0521C5
:101650009B1809025B181B79252B01D9012100E099
:1016600000210843521CD2B29645E5D8002804D088
:101670002946304604F0F3FB17E00298012814D104
:1016800060460179284612225043133081420CD122
:101690002946304604F07AFC0028E9D1A07C0028D5
:1016A000E6D12946304604F0A1FA6D1CEDB2022DB8
:1016B000A7D3A07C01283BD04A4F38780028E07C93
:1016C00007D0002873D00525E1782D02002906D126
:1016D00002E000282CD0F6E7E07A002829D000208C
:1016E000002905D0A17DA279891A782900DD012081
:1016F000E17A002904D0A17DA27B891A782901DC36
:10170000002816D00221304604F0A9FB00210A4629
:10171000C80083195819C27100201C186419401C94
:10172000C0B222720228F8D3491CC9B20229EFD3F1
:10173000FEBD2D48E27C31186B460D46304603F065
:10174000CBFD002806D068460078012807D0022883
:101750000BD02CE00221304604F081FBFEBDE27C80
:101760002946304604F038FBFEBDA07DA179052551
:101770002D02411A78291ADDA17B401A782816DD3E
:101780000221304604F06BFB00210A46C800831991
:101790005819C27100201C186419401CC0B2227272
:1017A0000228F8D3491CC9B20229EFD3FEBD3A780A
:1017B000002AFBD06B46791C304603F08DFD0028D3
:1017C000F4D1387805210902E075002006E03A18C6
:1017D00033185B185278401C1A76C0B23A788242AD
:1017E000F5D8FEBD300000201405000010B50446F9
:1017F000012925D0112923D01C2921D02C291FD023
:1018000037291DD0082911D013290FD023290DD035
:101810002E290BD035290CD01A2912D0252910D009
:101820000A290DD120680101081A05E00C21206861
:1018300001E020680E2148430A21FEF76FFC20607A
:1018400010BD20680001F7E702228256521C00D129
:101850008170704707480169890305D5064A516AB6
:101860000123DB04994351620169012211430161A3
:10187000704700000030014080F00040F0B506469F
:1018800095B00020694608760490054605902846E4
:1018900004F06AFB00286DD1002466E0A648807839
:1018A000002839D0902068438119A0000818426EA2
:1018B00080300068101A8C226A4393191422624304
:1018C0009B18032212029A18106008194030017DFB
:1018D000C07E081A50608C20684381191420604330
:1018E0000918032000020F187868002800DA404227
:1018F00078609248405D001903F0E2FC01463846EA
:10190000FFF774FF03CF083F002800DA40420818B1
:1019100004281FDD01201EE0902068438019A100EB
:1019200041184A6EE900864B491BCB181B5D1427F2
:10193000D31A8C226A4392196743D71903221202E1
:10194000BA1813607F4B00194030C918007D095D3B
:10195000401ABFE7002038747849E8002818093198
:101960004018005D641CF873E4B27448C01E405D0A
:10197000A04293D86D1CEDB2032D88D300200290B5
:1019800004F0F2FA002872D1AAE006A8009009AB90
:101990003046019A029900F0EDFB6846007E1190F6
:1019A000002003900746139012900546109002986D
:1019B0008C214843811901981422504309180320AF
:1019C00000020C1848E008A8009009A8425D07AB87
:1019D00030460299FFF77EFB207A002815D1694630
:1019E000087F8C2141438A1908A9097814234B43A5
:1019F000D318032212029A18127A002A05D0039AE9
:101A00000591521CD2B2039204906846007F8C214B
:101A10004843811908A8007814225043091803206C
:101A200000020818017C002914D01399491CC9B27E
:101A300013910068022802DD7F1CFFB20AE0811CBE
:101A400004DA1298401CC0B2129003E01098401CB7
:101A5000C0B210906D1CEDB26846007E8542B2D3D4
:101A60000320217A0002002902D0032015E040E083
:101A70000399022901D302200FE000294BD00499D9
:101A80008C2251438A190599142359435118081877
:101A9000006821684843EED10120607213980A2142
:101AA00048431199FEF724FBA07238460A214843A7
:101AB0001199FEF71DFBE07212980A214843119913
:101AC000FEF716FB20731098607310980A213818DF
:101AD00048431199FEF70CFBA0730198401CC0B25B
:101AE000019016480299C01E415C0198814200D9BC
:101AF0004BE70298401CC0B20290032800D23FE797
:101B000003250E4F00242D02FF1E204604F02CFA60
:101B100000280AD101E00020BFE78C206043801933
:101B2000395D40192246FFF761FB641CE4B2032CC7
:101B3000EBD315B0F0BD00004C0400208369000019
:101B4000990000208400002001218906002801D08E
:101B5000064A01E0054A80321160054A1169931571
:101B6000C0079943C00D01431161704700E100E0D7
:101B700000300140C10010B5081A7821FEF7B8FA0C
:101B800041050648490D0268D20AD202114301609C
:101B90000348416A01221143416210BD00410040E7
:101BA00080F0004010B5144A1369012189058B4368
:101BB000C107C90F8C05234313611369012464070E
:101BC000A343C407A408234313610C4B1A680124E0
:101BD0002406C007A243C00902431A6008480268ED
:101BE000E3109A434B051A430260426A02239A4368
:101BF00049000A43426210BD0040014000410040DC
:101C000080F0004010B51D4908681D4A1043086067
:101C10001A48403002691B4B1A4302610269C02313
:101C20009A43026102691B019A43026102699B1097
:101C30009A43026102691B019A430261C2698315DA
:101C40001A43C261826950231A4382610E4A1368A3
:101C500003246404234313604A6A0C4B1A434A6208
:101C60000B4A93690124234393618A6A094B1A43FF
:101C70008A62416902221143416110BD80F0004037
:101C8000008003042DF30300004100405800804011
:101C900000F80040FF980500044A11688023C0073F
:101CA0009943000E014311607047000080F000402E
:101CB000044AD1690323DB0280079943C00C014326
:101CC000D1617047C0F00040044A11684023C0074A
:101CD0009943400E014311607047000080F00040BE
:101CE000044AD16903235B0280079943400D0143F5
:101CF000D1617047C0F0004006498A69520852001D
:101D000002438A618A6902239A43400002438A613E
:101D10007047000000F1004007490A6901231B05D4
:101D20009A4303051A430A610A6901235B059A4332
:101D3000400502430A6170470040014006490A68B5
:101D400004239A4383001A430A600A6810239A43C3
:101D5000000102430A60704780F0004005490A68AC
:101D600008239A43C00002430A6008682022904377
:101D70000860704780F00040044AD16907235B0384
:101D800040079943000C0143D1617047C0F0004007
:101D90000EB5032801D300200EBD044980000EC9F2
:101DA000009102930192694608580EBDF46A000042
:101DB0000EB5032801D300200EBD044980000EC9D2
:101DC000009102930192694608580EBD006B000015
:101DD00070B501230F4A104C00280CD00D4D8035F2
:101DE00001280FD0022805D110691E073043106169
:101DF0002361296370BD10690121890608431061C0
:101E0000236070BD10690126F60630431061A3609F
:101E1000E96270BD0040014000F8004010B50C467A
:101E2000FFF7B6FF0168FF220132914322021143FE
:101E3000016010BD10B50C46FFF7AAFF0168490804
:101E400049002143016010BD00B5032801D30020E3
:101E500000BDFFF79DFF0068C003C00F00BD00B5C7
:101E6000FFF7A6FF00680005000D00BD00B5FFF7F5
:101E70009FFF0068C003C00F00BD00000EB50449FD
:101E800080000EC9009102930192694608580EBD68
:101E9000186B000010B50C46FFF7F0FF0168012237
:101EA00052069143E20792091143016010BD000000
:101EB0001149002810D0012816D002280BD108693A
:101EC000CA149043086108698A14104308610869BC
:101ED000D200104308617047086901225202104382
:101EE000086108691201F4E70869012292021043AF
:101EF000086108691201ECE700400140FFB50020CD
:101F000083B007460446054602902848007F012812
:101F100004D00846039B022B02D002E00220F9E71E
:101F200008460090002904D1FF210698F531884227
:101F300034D8022B114615D01D48FEF7D9F886B2C9
:101F400006987D217043C900FEF7E8F8009A81B237
:101F500080B2002A08D0012A09D0022A0CD0032A14
:101F600013D10DE01348E8E70F46740801E00F466F
:101F70003C46201885B208E0770804463819F9E78E
:101F8000069A002A0CD00F4605460B48019500948E
:101F900084683B463146029A0398A04707B0F0BDDB
:101FA000701C81B284B20291EFE700008C0900201E
:101FB00000449508808D5B00000200100021C94399
:101FC0008170C170002141700120704770B52B4CA9
:101FD000294EA17D607D2A4D814213D000290BD06E
:101FE000284600F043FD022000F050FD00F072FD95
:101FF0004B20C000608103E01020A07100F080FD44
:10200000A07D60751F4A9068401C9060C8282BD93D
:102010000120207500232921936049011370711854
:102020000E7B002E05D18E7B002E02D14E7B002E22
:1020300000D01070C87B002805D1487C002802D150
:10204000087C00280CD0107800280AD00120A07548
:10205000887A002809D00C4800F008FD012008E02B
:1020600013700020A075887270BD284600F0FEFC39
:10207000022000F00BFD70BD4C040020AE0D0020CE
:102080003C0F0000140000206C070000F8B5354C30
:1020900004262546203D03CD083D084302D0287D77
:1020A000012807D002202056401C0BD020780028A1
:1020B00007D007E000202C49287548721120FFF74F
:1020C00071FA26702078052703262849030004F0BA
:1020D000A3FA061243132C043112022020560B28B7
:1020E00001D00C2806D1084600F07AF9002802D069
:1020F000022011E02770F8BD1B48A0384278072A5B
:102100000CD000F0A7FB0020FFF7EAFD04202056CA
:10211000642101F0DDFE01202070F8BD8088884236
:1021200001D003F05DFC2670F8BDFEF733FF0028F8
:10213000E0D1F8BD03CD0843FBD10D4A507C002807
:10214000F7D02046FFF73AFF0028F2D00020207099
:10215000507400F081FEF8BD207901F097FE002850
:10216000E1D1F8BDF8030020AC0100208813000085
:102170002C090020FFB518A085B003C80E9D029160
:1021800001900020287016490698085C8018C0B29B
:1021900024310F5C002401A80057C01903F04AF94C
:1021A000064604A8009003AB324606990598FEF750
:1021B00091FFFF2E0AD06846007B03F0D5FE002871
:1021C00004D128780899421C2A700E54641CE4B289
:1021D000062CE0D309B0F0BDF7F9FE0207090000B4
:1021E0008369000010B57D2442691A4BA401A24204
:1021F00001D9012200E00022591827235B01C918E8
:10220000497A007F491EC9B2032809D0082810D096
:10221000012813D0022817D0062041430E4811E0B0
:102220000C2041430C483C38081806214A438018CA
:1022300010BD062041430848243803E006204143EE
:1022400005481838081810BD0620414302480C38CC
:10225000F8E700004C04002070000020F8B50646A6
:10226000002740783D46052806D0062804D00728D8
:1022700002D07D200001F8BDA420454C81592046A4
:1022800088474448B48001680322120391430160E7
:102290004148026940210A43026142688A43426020
:1022A0000020FFF77FFC00F0CDFA3C4C616A0A2069
:1022B000884700F0BFFA616AFA208847002400F0DE
:1022C00073F9C7193548416A05208847641CE4B290
:1022D0000A2CF4D30A213846FDF70AFF0090304853
:1022E000FFF748FC0120FFF75DFC2C4C616A1E20C3
:1022F000884700F0A7FA616A6420884700273C46B7
:1023000000F052F9C71900F003F945192348416A52
:1023100005208847641CE4B20A2CF1D30A21384610
:10232000FDF7E6FE07460A212846FDF7E1FE0446D2
:1023300000F080FA0098FA21C01B48432146FDF7BF
:10234000EDFE0746304600F047FC164D164C0228BD
:1023500002D0012808D018E025803089134988422E
:1023600013D38810208010E0C82F0DDA092000F068
:1023700033F906460A2000F02FF9FF212D318E4255
:1023800002D9884200D90A4D25802088F8BD000076
:1023900088130000804001400000014080010010CF
:1023A000E02E0000B80B00007C000020204E000052
:1023B0007017000010B50446FFF750FF064908806B
:1023C000A4210959E0888847E088A0800348416A31
:1023D000FF202D30884710BD000000208001001034
:1023E00070B50F4903460C46A034257A0020627A66
:1023F000002D01D1002A0BD0012A08D1084880887D
:1024000000F06CFD0749888101200021617270BDD8
:10241000012222720B8304490B7813430B7070BDA9
:102420000C0100208C090020F8000020F0B5134AB0
:102430009378002B06D0102B1FD00B2804D00C282B
:1024400002D00EE01170F8E70D4C256906462D0C00
:10245000093E0127B7403D4326692D04B6B22E43FD
:1024600026615B009B18203398719078400080189B
:102470002030C1719078401C9070F0BD540D002048
:1024800000F1004030B5194B00210A469C7809E064
:102490004D00ED182035AD79854201D10A460DE099
:1024A000491CC9B28C42F3D808E05100C918203148
:1024B0000C7A8C714C7A521CCC71D2B29978491E2C
:1024C0009142F2DC9978491E99700B2801D00C28B2
:1024D0000BD107490A690123120C093883409A433A
:1024E00010040A6992B202430A6130BD540D002003
:1024F00000F1004010B504480C22825E034903201D
:1025000000F02EF810BD00009A0D0020A903000075
:1025100010B504481022825E0349042000F020F820
:1025200010BD00009A0D00205207000070B50C4647
:102530000A4940004018C0883C21484315460721FD
:10254000FDF7D6FD80B2002C07D07D21C9006318AD
:102550005843FDF7CDFD401980B270BD540D0020E9
:1025600070B544000E487D262018C088F600484308
:1025700015463146FDF7BCFD83B2002D05D031462E
:1025800068185843FDF7B4FD83B206482018403858
:10259000408F984201D2181A00E0002080B270BD2E
:1025A000540D0020C000002010B504480222002174
:1025B000825E415E0020FFF7B9FF10BD9A0D00203A
:1025C00010B5044806220421825E415E0120FFF717
:1025D000ADFF10BD9A0D0020054910B54000401810
:1025E000C088062148430A21FDF782FD80B210BD54
:1025F000540D0020F8B500F085F8394D68680721C2
:102600000902084340046968400CC90BC90301432F
:102610006960344EB06800090001B0603248036957
:10262000072206210120984700F084FA2C48403008
:102630008169402291438161286805210906084388
:10264000286027488030C168032252021143C268C3
:1026500089B2120C12040A43C260244801680322A2
:1026600012059143012252058918016001F090FB87
:102670001F4F0023F8701F4A022101F09DFBF878DC
:1026800001F03EFC00241C4A600081184978105C6F
:10269000FFF7CCFE641CE4B2082CF4D3A8690C212B
:1026A0000843A861306801218903884308433060EA
:1026B0001248C168821591431143C160C168421537
:1026C0009143C1600E4920200860F87801F00AFCAF
:1026D00005488030416A3220884700F08BF8F8BD09
:1026E00080F0004000780040000100108040014070
:1026F000540D0020110E0000C400002000300140E5
:1027000000E100E0FEB514212D48FDF7D7FD2D4F67
:1027100032257E68092300222B493046009500F0BF
:1027200093FA274C092320800A2228493046009535
:1027300000F08AFAA080092314222549304600952A
:1027400000F082FA2081B868EE00092300221E49B9
:102750000096019000F078FA608009230A221B4954
:102760000096019800F070FAE080092314221849BD
:102770000096019800F068FA6081F8680923002249
:1027800011490095019000F05FFAA08109230A2207
:102790000E490095019800F057FA20823D690923FF
:1027A000002209492846009600F04EFAE0810923EC
:1027B0000A2206492846009600F046FA6082FEBDCD
:1027C0009A0D0020C0870000FF03000000FC0F00EE
:1027D0000000F03F10B501F073FA044804490068A6
:1027E000C9694008884700F093FA10BD80000020B6
:1027F0008001001010B5FFF77DFE034C2080FFF72D
:1028000087FE608010BD0000C000002010B550435E
:10281000C0180A21FDF782FC10BD10B5FFF7F2F9D0
:1028200010BD000002490020401C8842FCD37047C4
:10283000A86100000248416840229143416070470E
:102840000000014002484168402211434160704746
:10285000000001407CB50F4C00206A4621461071F3
:102860006C394978062914D101250023A0220C21B6
:102870002046009500F00AFF2520005DBF2108409A
:102880006946087101ABA0220B212046009500F09B
:10289000FDFE7CBD78010020F8B53D4F0025B989CB
:1028A0007889814204D03B49086000F0C9F83D8234
:1028B000788A7D26401C80B2F6007882B04264D3CC
:1028C0007D82388A1E21484301B2B98000203856E3
:1028D000002803D0401E38703D82F8BD08220E202B
:1028E000BA5E385E824200DD38813D820820385E63
:1028F000441AB44201DD344603E02748844200DA3A
:10290000044618212046FDF709FC22490A68801870
:102910000860B04201DD0E6002E0002800DA0D60C0
:10292000E017400F00190988C010401800B27880E5
:10293000B04201DD7E8002E0002800DA7D807888E8
:1029400000F07EF8787800281FD00820385E002834
:1029500009D0124988420BD10421795E104A914274
:1029600006DD20200DE0B88800280DD1102008E0F9
:102970000C49884208D10420385E0B49884203DDA7
:102980003020B8717D7000E0BD717889B881F8BDE4
:10299000AE0D0020D400002018FCFFFF6C070000E3
:1029A000DC0500003C0F0000B80B000070B50220F1
:1029B000FFF77EFA7D23DB00194A03210220FFF78F
:1029C0009DFA01210220FFF765FA164801680220EE
:1029D00088470120144D40036860144C206803218F
:1029E0008906884321054018206000F089F81048C6
:1029F0006862A863206803229205904320600D4816
:102A0000E11400688162016301620B490868FF23D9
:102A10001B0498431043086008494020086070BDBB
:102A200050C300000002001000000140804001403F
:102A3000FFFF0000F000002004E400E080E100E07F
:102A40007D2110B5C900884200D90846081A83B212
:102A5000044A03210220FFF751FA034801680220CB
:102A6000884710BD50C30000000200100249C88111
:102A70000120487070470000AE0D00200248018A16
:102A8000491C018270470000AE0D002010B50021E6
:102A9000032800D900200D4B0D4A1C89002C02D1BF
:102AA00006214143515C0624604382180220105ED7
:102AB00018810E229A5E904200DD1A81002901D011
:102AC000032018700120587010BD0000AE0D0020CA
:102AD000D800002010B57D23DB00064A0321022028
:102AE000FFF70CFA04480168022088470349402098
:102AF000086010BD50C300000002001000E100E0BB
:102B000070B5094C1821A5892046FDF7D7FBA58192
:102B10000020FFF795FF0548FFF7A8FF1020A071E0
:102B200003494020086070BDAE0D00203C0F00003E
:102B300080E100E010B50120FFF7DEF80120FFF78B
:102B4000FDF80120FFF70AF90120FFF7E5F807205B
:102B5000FFF712F90D49012008710D48016B102291
:102B60008900090E1143026B8905FF239B059A43D7
:102B70000A430263016BF72289008908920511401C
:102B8000026B9A430A43026310BD0000540D0020FB
:102B9000C0F00040F0B5F727BF05FF250022AD05C6
:102BA0000C49082612E00B6B0C6B9B009B083B400A
:102BB000AC431C430C630B6B0C6B9B001B0E334331
:102BC0009B05AC431C430C63521CD2B28242EAD335
:102BD000F0BD0000C0F0004038B504460546807DD9
:102BE0006C35002804D08007800F012823D024E012
:102BF0001349E068884202D3607805281BD06078CA
:102C0000072818D000200346009080220C21284677
:102C100000F03CFD002810D0203528790007C00FB7
:102C20000BD068798007800FA075022805D105496F
:102C3000E068884201D1022038BD012038BD000083
:102C4000E8FD0000409C0000084010B5D040012184
:102C50009940029C014201D088434042002801DB98
:102C6000014600E04142A14200D9002010BD000011
:102C700010B50C4801690122D2051143016164209D
:102C800003F07AFD03F04AFD0748416AFF202D302A
:102C900088470024204600F009F8641CE4B2032CA5
:102CA000F8D310BD0040014080010010410010B574
:102CB0000D480E4A0C18F5210902204603F023FDA9
:102CC00000280CD101212046490703F06BFD0028A4
:102CD00005D12046022103F06DFD002801D000201F
:102CE00010BD012010BD000086690000E51900003C
:102CF00000B500F001F800BD00B589B2007803F01E
:102D0000B1FC002000BD00B503F05EFD00BD000079
:102D10001D48016A0322120411430162016A012263
:102D2000920491430162016A0322D202914301623B
:102D3000016A490849000162016A20229143016247
:102D4000016A402291430162016A82159143016246
:102D5000016A421591430162026A0121C9038A4353
:102D60000262026A08239A430262074A803AD368E1
:102D7000DB08DB00D36002680A43026001680214CA
:102D8000114301607047000080F0004001200949B4
:102D90004006086008480168821511430160074831
:102DA000C169072212049143032212048918C161E8
:102DB0007047000000E100E080300140C0F00040BA
:102DC000104A116A9315C0079943C00D014311625F
:102DD0000D480E4A03897D2149014089934203D160
:102DE000884201D1022004E0884201D2012000E0A3
:102DF0000620074A116A0723DB019943C0010143FA
:102E000011627047803001400C0100201027000043
:102E1000C0F0004010B50D4801680322120691432E
:102E200001221206891801600948426881148A4308
:102E30004260084A136914691B0C0B431B04A4B2BB
:102E40001C43146102690A43026110BD80400140C5
:102E50000000014000F100400248416882149143A3
:102E6000416070470000014010B506484168821477
:102E70001143416000210846FFF7A2FF0020FEF742
:102E800063FE10BD00000140F8B50546A52100F025
:102E900022FB0521C901104E01276C1800280DD016
:102EA0007079C10704D0277300076773400F11E0E2
:102EB000207B60730020207308200BE02846A621A9
:102EC00000F009FB002806D070796928F0D9277333
:102ED00067730420A073F8BD98010020FF30F5301F
:102EE00080B2704710B50F48002101770E4A026189
:102EF0006423838041708170012404700B4A4281F5
:102F00000B4AC2810B4A9288FF32F5328281FF223E
:102F1000C380F5320281084A4261084A82614177E2
:102F2000847710BD8C090020580F0200983A0000E9
:102F3000085200000C01002098B10100204202005C
:102F4000F8B51A48002501891948814202D308467C
:102F5000FF30F53086B2174800244681FFF7C2FFE4
:102F60001549486A0A15904348623046FEF702FE4A
:102F70000120FEF717FE7D20C000371A36180EE03C
:102F8000FFF71EFB05460D48C06980470B48641CCF
:102F90008038416AE4B2012088470F2C03D8BD4233
:102FA000EEDBB542ECD80120F8BD00000C0100209A
:102FB000983A00008C09002080F0004000020010C8
:102FC0000F4A10B50F49904203D0884201D000202B
:102FD00010BD904207D10120FEF782FE0020FEF7CF
:102FE00067FE002008E0884208D10320FEF778FE43
:102FF0000120FEF75DFE0120FEF74EFE012010BD10
:103000008813000028230000F0B50E4605462F89DE
:103010006C491C3085B08F4200D90F462C46A03435
:10302000A27A294680310291130003F0F5FA0705D0
:1030300044192FC25CC7C200052E02D0062E0AD04A
:103040000BE00078012802D12878002801D0022066
:1030500002E0062000E00320A07200206072A8E0D9
:10306000594E304600F0D4FC2E830C2020563221DD
:1030700000F02EFF02990020C8850520A072B742FB
:1030800001D1012000E00320E07292E0052E02D081
:10309000062E04D006E0384600F0BAFC02E03846BE
:1030A00000F0F4FD2F830C202056322100F010FF99
:1030B0000520A072E5E7052E02D0062E05D009E016
:1030C000424E304600F0A4FC03E0414E304600F092
:1030D000DDFD2E830C202056322100F0F9FE052064
:1030E000A0720620D0E7207B00F0D0FE002860D040
:1030F000FFF75AFA0146288B0390091A00910191B3
:103100000A2148436421FCF7F3FF01990246002994
:1031100001DB084600E04842824201DD052E16D060
:10312000062E1AD10098019003988100401864215E
:10313000FCF7DEFF01460198002800DA4042814298
:1031400005DC00982349FF30F430884205D8E07A46
:10315000A07202990020C8852BE002980299C08DC8
:10316000401C80B2C885062805D20C20205632218A
:1031700000F0AEFE1DE000200299052EC88502D0A9
:10318000062E18D015E00398B84202D10E488742A7
:1031900009D10020FEF7A4FD0020FEF77DFD0020F0
:1031A000A07205B0F0BD28817D200001688101205A
:1031B000A0720120F5E7FFF74DFBEAE701206072FE
:1031C0000020F5E7204E00002823000088130000AF
:1031D000B4140000E603000030B503460020392493
:1031E0000EE01A78504000225B1C050602D5400014
:1031F000604000E04000521CD2B2C0B2082AF4D3B2
:103200000A46491EC9B2002AEBD130BD7CB508A0E0
:1032100003C800246D4601910090285702F0A4FADB
:10322000641CE4B2072CF8D30348C06980477CBD16
:10323000090B0C0F10FF05000002001010B508204C
:1032400002F092FA0248016949084900016110BD83
:103250000040014010B50020FEF71EFD072002F0DF
:1032600083FA00210846FEF7D9FD034801684908A2
:103270004900016010BD000000F8004010B50020BA
:10328000FEF70AFD00210846FEF7A2FD01210020FD
:10329000FEF7C4FD01210020FEF7CCFD0448802488
:1032A00004600021072002F069FA0248046010BDA2
:1032B00080E200E000E100E010B50446007801285B
:1032C00004D000F0EDFC0120207010BD00F0F0FCF7
:1032D0000020F9E710B504460078002803D100F07B
:1032E000DFFC0120207010BD10B5044600780128D5
:1032F00003D100F0DDFC0020207010BD7CB50BA0D8
:1033000003C8009000200B4C01916B460122195C10
:10331000CD06ED0E1146A9402160401CC0B2072821
:10332000F5D30548C06980477CBD0000090B0C0F30
:1033300010FF050000E100E00002001010B5104889
:10334000026901210A4302610F480E490068FCF737
:10335000CFFE0122014694072046FEF781F8204661
:10336000FEF789F80949A01508600949086000219D
:10337000082002F003FA0120FEF78EFC10BD0000C9
:1033800000400140A86100008000002080E200E0D1
:1033900000E100E0884201D103207047022070471D
:1033A00030B5027D072A12D8C37C024624329A180F
:1033B0001378047D07252D1B0C46AC402343137066
:1033C000427D4A404275017D491C017530BD437DF7
:1033D0000122511A8B4201D04274027400210175FE
:1033E0004175C17C491CC1742030C178491CC17031
:1033F00030BDF8B50446164609200A460002091AEF
:1034000001235B0200270120994201D8012E06D03A
:1034100011461E39142918D8E073A773F8BDA17B93
:103420000029FBD1A073E17C002902D1217C002975
:1034300002D06074E773F8BD1009207120799030D4
:10344000208120792838E080F4E710462D2190383B
:1034500049018842EFD8E07B002811D0217910463D
:103460003C30FCF745FEC5B205E0012E0CD0002132
:103470002046FFF795FF28466D1EEDB20028F4D1D7
:10348000207D0028D6D0F8BD0121F1E710B505292F
:1034900003D0062904D0002010BD00F047FA10BD6B
:1034A00000F0D0FA10BD17B5044681B000206C348E
:1034B0000A46009003AB1C21204600F0E7F80028E4
:1034C00007D0203420790007C00F02D0012004B0BB
:1034D00010BD0020FBE738B5044600206C340346DD
:1034E0000A4600900C21204600F0D0F8002806D0B3
:1034F000203420790007C00F01D0012038BD002002
:1035000038BD70B50446007D26461736082808D217
:10351000E07C805D217D0722511AC840C507ED0F70
:1035200003E0607D0121081AC5B2002D204605D0B8
:10353000FFF7D0FE607D6840607501E0FFF7D4FEC4
:1035400000202086A0216186217D491C2175217DD6
:10355000092913D32075E17C491CE17460750220B0
:103560006070E07CA17D884203D2E07C805DC1096F
:1035700000E001212846FFF70DFFE07070BD10B597
:103580000446FFF767FE2046FFF758FE06216170EC
:1035900010BD10B5017B002903D000210186017305
:1035A00002E0018E28310186018E428E914209D3BC
:1035B00041780B0003F030F80604070A0D101306DB
:1035C00000F038F810BD00F031F910BD00F0B2F88D
:1035D00010BDFFF796FF10BD00F057F910BDFFF7C3
:1035E000CEFF10BDF0B51546064600271730059AE8
:1035F000017045700225841C0B2904D01C2902D0BF
:103600001B2905D00FE0197821700325641C0AE0FE
:103610002270D11CCDB203E0D95D21707F1CFFB2B6
:10362000641C9742F8D32946FFF7D6FD20706D1C25
:10363000B575F0BD70B50446407B01260025002815
:1036400020460DD0FFF750FE65866573A07C0028EC
:103650000DD0A07C01280CD0A07C022807D010E05F
:10366000FFF738FE05204002608666730CE0667046
:1036700004E02575E5746575042060702046FFF749
:10368000FDFDA07C401CA074258670BDFFB50446DE
:10369000807A81B00026012843D0032725462035B3
:1036A00034212046FCF70AFE012020732048416A9D
:1036B0000A2088470F2F36D00020E0720A98009029
:1036C00002A90EC92046FFF78DFFFFF79FFD204698
:1036D000FFF734FE60780628FCD12046FFF7AEFDE8
:1036E000FFF70CFEE87800280ED0E878401EC1B243
:1036F00020462430FFF770FDEA7821462331515CE3
:10370000814201D001202074207C002803D0761C47
:10371000F6B2BE42C4D3207C002807D0002005B0FA
:10372000F0BD0F27BAE70120E072CEE70120F6E7EF
:103730008001001010B50446FFF7BEFDA078401CC4
:10374000A0700020208628216186A178E27891422D
:1037500008D3E17CA27D914201D3607001E0032196
:103760006170A07010BDF8B50646002704461C36EF
:10377000C777FE22CF2100F0A5F82046CF21FFF722
:10378000AAFE25468C35002806D06879C00703D1EB
:103790000520C0012018C77220468D21FFF79BFE2F
:1037A000002801D06879307020467E21FFF793FE13
:1037B000002813D00120207069798907890F08310A
:1037C000A1756A79982191430FD06979A020884327
:1037D00004D0687994210840902807D020462F21F2
:1037E000FFF779FE002809D102E0F0700620F8BD4D
:1037F00020462121FFF76FFE002805D068790007D9
:10380000000F70700520F8BD20468021FFF763FE91
:10381000002803D069799020884301D00B20F8BD9F
:1038200068798007800F0830A075DFE770B504461F
:10383000807B0126052500281FD02046FFF70AFDC2
:103840000020A073E17A002902D06674207412E08F
:10385000A17C03290FD0022161702086A020608600
:10386000E17C20461730085CC109C9010020FFF740
:1038700091FDE07070BD657070BD208E0B21490216
:103880008842F9D366742674F5E7827B0021002A0A
:1038900000D08173437C0522002B09D0037C002BD0
:1038A00001D04270704741700186A0214186704767
:1038B000018E19239B029942F9D342700121417470
:1038C0000174704717B5044681B001206C340A4674
:1038D000009003AB0B212046FFF7D8FE002807D04D
:1038E000203420790007C00F02D0012004B010BDA1
:1038F0000020FBE71CB5044600200190100A6B462F
:1039000018715A7102206C340A46009001AB1B21D9
:103910002046FFF7BBFE002806D0203420790007A0
:10392000C00F01D001201CBD00201CBDF0B5074612
:103930000546002085B0064602901C372846222105
:10394000FFF7C9FD002844D0384660300190407D23
:10395000FF21F5314843E860384620211030FCF75C
:10396000ADFC384620213030FCF7A8FC78780024E4
:10397000039025E0214630312846C9B2FFF7ABFD60
:103980000198407D642148436100C9190091088273
:10399000B04201D906460294214650312846C9B2A8
:1039A000FFF799FD0198407D6421484300990886FE
:1039B00004D1002C02D00098C18D0186641CE4B2B1
:1039C00003988442D6D9002E02D00F48864202D2F4
:1039D000002005B0F0BD7D21E868C90048433146AC
:1039E000FCF786FB029980B24900C919098E814211
:1039F00008D8002906D069812E8104488035686284
:103A00000120E6E76881F7E728230000113A00006B
:103A100010B50B4C6421FCF76BFBC2B22C21204685
:103A2000FFF750FF002808D0204601222B21FFF786
:103A300049FF002801D0012010BD002010BD00006A
:103A40000C010020F0B50546044687B06C300290AA
:103A5000002003901C3520469021FFF73CFD0028F4
:103A60007ED002982030019046790A20F10900F0BA
:103A70009DFA7106490E4843642148436860204618
:103A80008F21FFF728FD01462046A030002902D0F3
:103A9000019949794173407B002868D081088007EB
:103AA000800F049000200691074600902BE0C0068E
:103AB000010E0822204600F0E3F8002850D000262E
:103AC00002987100091820314879FF22F5325043DD
:103AD00080B228810590897964225143E981484365
:103AE0007D21C900FCF71AFBB84204D30599218156
:103AF000E98961810746761CF6B2042EE0D300986E
:103B0000401CC0B2009006998842D0D30498002887
:103B100068D000980822C006010E204600F0B0F8D8
:103B200000281DD000261EE00298710009182031DF
:103B30004879FF22F532504380B22881009089797C
:103B400064225143E98148437D21C900FCF7E6FA2C
:103B5000B84204D300992181E9896181074600E0D8
:103B600088E0761CF6B204988642DDD33AE020461F
:103B70009221FFF7B0FC00287CD00198407902F038
:103B800067FD688120469321FFF7A5FC002871D0CE
:103B90000198407902F05CFD288120812046942123
:103BA000FFF799FC002865D00198407902F050FD9C
:103BB000A88120469521FFF78EFC00285AD0019855
:103BC000407902F045FDE881608120469C21FFF7A5
:103BD00082FC002806D00198407961890A2250436E
:103BE000081860812046A021FFF775FC002841D00D
:103BF000019846792046A121FFF76DFC002839D0B5
:103C000001984579C02132460A432046A021FFF79A
:103C100059FE00282ED018212A460A402046A1210C
:103C2000FFF750FE002825D020896A46010A11734B
:103C300050730220009003ABB0221B210298FFF7C3
:103C400025FD002818D0019800790007C00F13D077
:103C500020466289B221FFF74DFE00280AD0204697
:103C60006289BA21FFF746FE002803D0034880345A
:103C70006062012007B0F0BD0020FBE78D3C000032
:103C800010B5D031C9B2FFF70EFC10BD10B582B22D
:103C9000B8210248FFF72EFE10BD00000C010020E5
:103CA00010B50220FEF704F80120FDF7F5FF10BD66
:103CB00010B50020FDF7FCFF0120FDF7EDFF10BD62
:103CC00070B5294E072030602949284808632A49E1
:103CD0002848C861294801210268294849040D0380
:103CE00001238030AA2A264C026833D08A430A4333
:103CF00002602168A943294321600168052209095E
:103D000009011143016001683F2212019143FF2222
:103D100021321143016001680122120491431143D1
:103D2000016001689210914311430160154A00201F
:103D3000D0609360FEF776FD53601360032030601F
:103D400010688107890F1048491CFCF7D1F90F4909
:103D5000086070BD8A4302602168A9432160016840
:103D6000090909011943CDE700200140418A0000FB
:103D7000002201405012000040E7004018000020DF
:103D800080F0004000400140006CDC028000002018
:103D900010B50021074BFF200A01D2181478002C1F
:103DA00004D0491CC9B21929F6D310BD01201070E6
:103DB000084610BDC409002070B5054D04012E5DF4
:103DC000002E04D0192802D26019001D0EC070BD4B
:103DD000C409002070B50F4D00242001401901785E
:103DE000002912D0417800290FD1817800290CD107
:103DF0004168002902DD491E416006E0002904D126
:103E00008168002901D060B28847641CE4B2192C93
:103E1000E3D370BDC409002070B50024204600F033
:103E200047F8641CE4B2192CF8D312480169022245
:103E30001143016110487D21C9000068FCF758F961
:103E40000E4D014601222846FDF70AFB0C48016889
:103E5000FF2212029143EA131143016009489411B1
:103E600004602846FDF70CFB07490C602846FDF767
:103E700002FB70BD004001408000002000100040A7
:103E800008E400E080E200E000E100E00101074812
:103E900008184178002905D18178002902D14068AD
:103EA000002801D00020704701207047C40900207D
:103EB000064A0021000111540123801843708170CB
:103EC0004A1E81604260C16070470000C409002042
:103ED000192803DA024A0001801841607047000087
:103EE000C4090020054B01015A5C002A05D019289D
:103EF00003D20022C818427082707047C4090020A3
:103F0000192804D2024A012100018018417070472B
:103F1000C40900201FB516487D210269C902082383
:103F20001A43026112488030026803239B049A43BB
:103F300001239B04D21802600E480068FCF7D8F8F1
:103F40000022014601200192029213460392009042
:103F500002460948FDF79AFA084910200860084807
:103F60000168C022090A0902114301601FBD000057
:103F700000400140800000200060004000E100E0BF
:103F800004E400E008B5002069460870054802F026
:103F900095FA002804D0684601780348FDF79DFA99
:103FA00008BD0000B400002000600040024601206F
:103FB00004E0CB0700D05043491052430029F8D108
:103FC0007047000001200849C00408600020401C20
:103FD000C0B22028FBD3BFF34F8F05490348C86008
:103FE000BFF34F8FFEE7000080E200E00400FA0517
:103FF00000ED00E030B504460F200B88012C0CD0FA
:104000001479A34202D94D88A54205D8D2789342AB
:104010000CD34988914209D330BD91788B42FBD8AB
:1040200051788B42F8D811788B42F5D8002030BDFA
:10403000F0B597B00C461D9F1C9B1F9915462D2C63
:1040400005D1BD48854202D1BB4D3C241D35BA483F
:10405000002614303B2C22D02D2C08D02A2C0AD03C
:104060003C2C0BD0272C0FD0262C13D017E08542E8
:1040700015D1012613E0B0480D30F8E7AE48801C9A
:1040800085420CD102260AE0AB48001F854206D1CA
:10409000032604E0A8480C30854200D10426B00075
:1040A000A64A301882180A601E981C214843A3496A
:1040B00054394218B9000391515E01910399501887
:1040C0000221415E00911E9990204143CA181E981A
:1040D0005432C100091A9A48069104920918C85D21
:1040E00041000591D05D79B2009B019A0291FEF7E3
:1040F0008DFB1390049A0399881800694100914838
:10410000FBF7F6FF0E9090480699009B0818C05DDB
:10411000019A0299FEF77AFB6421FBF7FFFF0290F8
:1041200088480599FBF7FAFF02460F9042437D202D
:10413000C0000E994243494310460092FBF7EEFF40
:10414000C3170890099381490098FBF7E7FFC1174F
:1041500004902A20464379480591193031181E9859
:104160000E22504309187A008B5C88180793427816
:104170002946694376480692FBF7D0FFC6179E2270
:104180000023314601960090FCF732F8029AD317CB
:104190000393FCF72DF805460E460B910A90224634
:1041A000002303990298FCF723F87D22D200002314
:1041B000FCF71EF82D1A8E4100219E2022460B4648
:1041C000FCF716F87D22D2000023FCF711F82A181C
:1041D0004E410C92224600230B990A98FCF708F8EE
:1041E00064220023FCF704F833460C9AFBF7DAFF4D
:1041F000079B64215843FBF791FF129068460FC854
:10420000FBF7F6FF64220023FBF7F2FF0D46119146
:10421000044610907D21C900129802F0E5F922466B
:10422000171A2C46009A08988C41019E099B801A07
:10423000B341069A1946D5172B460795FBF7D8FFC9
:1042400002460B4638462146FBF7D2FF044641485A
:10425000009A0D4683120199101859411591149036
:10426000019BFBF7C5FF039B029AFBF7C1FF3A4A8C
:104270000023FBF7BDFF24184D41129A0B910A90C1
:10428000D31715991498FBF7B3FF039B029AFBF71A
:10429000AFFF0D910C90099B089AFBF7A9FF2E4ADE
:1042A0000023FBF7A5FF22462B46FBF77BFF02907E
:1042B0007D21C900119E109D129802F095F9344697
:1042C0002F1A8C41049B009A019E981A0599079B0E
:1042D000B141069AFBF78CFF02460B463846214651
:1042E000FBF786FF0A9A0B9C87180B4663411D4615
:1042F000059B049A0D990C98FBF77AFF164A002348
:10430000FBF776FF2B463A46FBF74CFF7D210E9BD1
:10431000C9004B4308490F9A96394A43934201DB3F
:10432000029900E00146139864225043FBF7F6FE21
:1043300080B217B0F0BD000091030000086A0000D1
:1043400099000020801A06008400002019E208006D
:1043500000CA9A3B18FCFFFF204E0000F8B5044647
:104360000020424D0090E878002851D10920C0017A
:104370002618B06B0178BE2907D0FDF71DF9B16B87
:10438000C97A884201D00120F8BDB06B0178384E5F
:1043900000290BD00078BD2808D2A8787D218000A4
:1043A000305C090140B2FFF793FD31E0A87880004E
:1043B000305CFFF76BFD00282AD0A9782727611809
:1043C0007F010120C919C876A878FEF76FFC002884
:1043D00007D0A8787D218000305C090140B2FFF74A
:1043E00077FDE019007D052109020026032811D080
:1043F000A87801224300C018001940188277A878D5
:1044000009212018C019C6771A482018FBF756FF53
:104410000098F8BDA87800232018C0194675A87820
:1044200042008018001940188677A8782118C91909
:104430004A7A0D21484301190E4815300918E01C2D
:1044400001F06AFD0949A878091D0E540D21484361
:10445000011908481530081806704670A8780549F3
:104460002018343140180672C9E7000029000020E6
:1044700080090020AD040000F0B50921C9014118F0
:10448000886B42782D4C002A0FD0012A0DD0022AC9
:104490000BD0D31E1D46DB0F5B195B100020DD0027
:1044A000EB1AD50730D01D1930E0254B00209D7840
:1044B000EB005B1B002A04D0012A07D0022A0CD093
:1044C00011E08E6BC71CF65D1F190BE08E6BC71CCD
:1044D000F75D1C4E9E19375405E08E6BC71CF65DC8
:1044E000194FDF193E54401CC0B20728E2D3886B35
:1044F000837816484355CB6B01201870CB6B042092
:104500005870C86B827015E00E4D5D192D18CE6B7A
:104510002D78C71CF555401CC0B20728C1D3CB6B02
:1045200004201870C86B4270054A08489278C96B1D
:10453000805C8870064901208874F0BD84000020EA
:104540002900002099000020AC090020AE000020C6
:104550002C090020FEB52522044652016C49801822
:104560000923067B8978DB01E518B14219D141792D
:10457000002916D12721490161188C46897F00291D
:104580000FD0A96B497829225201A3180027009364
:1045900000294BD001290BD002290CD0032945D189
:1045A00015E0E96B02200870E96B12204870FEBD2F
:1045B000761C06733AE0721C0273827A2521521C23
:1045C000827249010120A219511888712EE0A119A7
:1045D0008A180191D773117B012901D1009BD972EF
:1045E000017B0523491C01736046007D1B020328E3
:1045F00021D0474801218078420080180019C01856
:104600008177434881786218272149015118CF7773
:1046100080784049C000001940180821FBF74EFE81
:104620003C48092155382018FBF748FE0098C07A0D
:10463000012838D05EE036488078211827204001D4
:1046400008184775324817738078410040180019E0
:10465000C01887772E4827218078490122185118E1
:104660004A7A0D21484301192A4800234038091885
:10467000E01C01F051FC2649091D081F80780F54E9
:10468000211827204001081807760D2046432148AD
:10469000311940380818077047701E4901982139B0
:1046A00040180772ADE70098C772E96B14200870D4
:1046B000E96B01204870E86BFCF77EFFE96BCA7A72
:1046C0005040C87200261449002470004718012188
:1046D00038460C234907EA6BFEF715FB641CE4B26D
:1046E000032CF4D3761CF6B2032EECD30C21E86B2A
:1046F000FBF7E4FDE96B01200870EA6B12215170B1
:10470000A96B4978EA6B917004498874FEBD00007A
:104710002900002002050000866900002C09002005
:10472000F0B5284925277F018B78C2190921D47A51
:10473000C9014118A34213D11379002B10D12726A8
:10474000760183199B7F002B0AD08D6B6B78002B31
:104750002BD0012B0BD0022B27D0032B25D109E026
:10476000CA6B02201070C96B11204870F0BD641C28
:10477000D4721AE0AD786300E3181B18DB195D737F
:104780008D6BED789D738D6B2D790019DD7380191C
:1047900005738B6B5B79002B00D001230376D07AF5
:1047A000401CD072507A401C5072CA6B01201070AD
:1047B000CB6B11225A708A6B5278C96B8A7002498E
:1047C0008874F0BD290000202C090020F0B5504964
:1047D00003468A7840330921DD7BC9014118AA428A
:1047E00015D115277F01C219947A002C0FD1527A66
:1047F000002A0CD08A6B5278002A4AD00B24A401DC
:10480000012A0BD0022A3BD0032A42D14EE0CA6BC8
:1048100002201070C96B0B204870F0BD15270126CF
:1048200042197F01D719BE718F6BBF781419E774D5
:10483000EA001218052794463F02D2199670E67CCA
:10484000D6710D26002275432E180FE0886BD51CFB
:10485000455D1520B7184001381805736046871864
:10486000052000023818521C0572D2B2E07C90423A
:10487000ECD8D87B401CD873587B401C587308E098
:104880004019C5190022AA710019C274D87B401CB6
:10489000D873CA6B01201070CB6B0B225A708A6BD5
:1048A0005278C96B8A701B498874F0BD15270126A0
:1048B00042197F01D719BE718E6BB6781419E67450
:1048C000F2B2EE0036180527B4463F02F619F27030
:1048D000B6460D26002275432E180FE08D6BD01CB6
:1048E0002D5C1520B71840013818057360468718ED
:1048F000052000023818521C0571D2B2E07C9042AB
:10490000ECD8E27C886B8018C27870468271B0E780
:10491000290000202C090020F0B5494905468A7875
:10492000403509212B7CC90144189A4211D1152127
:1049300049014118CA7A002A0BD1897A002908D086
:10494000A16B497800296DD0012909D0022969D1CC
:1049500041E0E16B02200870E16B0D204870F0BD72
:104960002926C118760101228E193273F273272687
:10497000760189194A75A26B8C4692784A720D228B
:1049800000215A43121896460AE0A76BCE1CBE5D62
:104990007246571813229201BF18491CBE70C9B243
:1049A0006246527A8A42F0D8A16B4A79244E614617
:1049B0000A73361DF15C002908D161464A7A214B01
:1049C0007146C9180123C01C01F0A6FA1C49002039
:1049D0008978705423E02721C718490100227918EB
:1049E0004A75174A121D161FB678925D002A16D016
:1049F0004A7A0D214B431B181249C01C5E18002334
:104A0000314601F089FA0E490020091D0A1F9278EB
:104A100088540C4930701F31707079180872287CE6
:104A2000401C2874E16B01200870E26B0D2151706D
:104A3000A16B4978E26B917003498874F0BD000066
:104A400029000020C20400002C090020F0B5044613
:104A500085B000200190A148274681784037092081
:104A6000BE7BC0012518B1421AD115204001201883
:104A7000407A002814D12720400120180390807F1D
:104A800000280DD0A86B40782921490161180091B8
:104A9000030001F0C1FD08710D141F4D5E76D17148
:104AA000E96B02200870E96B0920487005B0F0BD81
:104AB00015210020A21949015118087080E0152025
:104AC000A2194001012110180170C1700220834910
:104AD000087051E0A019152252010121821802909C
:104AE00011702921490140180390007B00281DD036
:104AF0002721029849014018427A0D204643784800
:104B000031190E1800233146E01C01F005FA734AF2
:104B10000020121D111F897850540399704A0873A0
:104B20003070707002991F32891808720320CEE726
:104B3000902100204E433219111840310B7DCB7665
:104B4000AC6B831CE35C401CC0B20B750728F3D32D
:104B500012E0902100204E43321981005118802329
:104B60004C6E5C50AC6B831CE35C401CC0B24B666B
:104B70000728F2D3012001900098C07A012862D062
:104B80008AE0A01929214901029000224018C2732D
:104B9000017B012901D1009BD972152302995B0188
:104BA000C9180A7003990B7D05210902032B09D04E
:104BB0004A48012280784300C018001940188277C3
:104BC000012084E7002202734448807823182720BC
:104BD000400118184275414880784300C0180019F8
:104BE000401882773D4827218078490122185118C2
:104BF0004A7A0D2148430119394800230918E01C5D
:104C000001F08AF9354A0021121D101F80781154D5
:104C1000221827204001101801760D204643304805
:104C2000311909180020087048702D4902981F3169
:104C3000411800200872C3E715210120A21949017B
:104C40005118087072E700990020C872E96B1420AF
:104C50000870E96B01204870E86BFCF7ADFCE96B6C
:104C6000CA7A5040C87200261E49002470004018BD
:104C700000900121EA6B0C2349070098FEF743F8E6
:104C8000641CE4B2032CF4D3761CF6B2032EEBD3EF
:104C90000C21E86BFBF712FBE96B01200870EA6B53
:104CA00009215170A96B4978EA6B91700E4988749B
:104CB0000198002800D1F9E6B87B401CB87307487A
:104CC0000078022805D00328F5D1387B401C3873C2
:104CD000ECE6787B401C7873E8E6000029000020B1
:104CE000C2040000866900002C090020F0B50546CA
:104CF0008FB00F20009000200D900920C0012C18CB
:104D0000A06B47787D49002289783B006E1801F03E
:104D100083FC0604C40C3C4969C4272101204901D5
:104D20007118487576498875B7E029277F010123F6
:104D3000F1190B73272149016E18367D6F48032E38
:104D400016D08678AE19F619B3718378EB18591816
:104D5000CA7780786B49C000401940180821FBF7DA
:104D6000ADFA6848092155382818FBF7A7FA94E0EE
:104D70008378EB185B185A7583785E009B190526BB
:104D80005B1936029B199A77DFE78078002808D1F3
:104D90005D48FDF76BFE0120FDF778FE5B490120C1
:104DA00088727AE08278C078000202430992A06B90
:104DB00002794079000202430792A06B8279C079A0
:104DC000000202430892A06B027A407A000202437A
:104DD0000A92A06B807A08AA107304A8FCF7A2F9C3
:104DE0000D905AE00C92A06BC07869468875A06B54
:104DF0008178002904D080787D21C900081A00E05C
:104E0000434869460883887D0A388D2845D2182092
:104E1000085EFF21F53188423FDB3A49DA318842AA
:104E20003BDC0026354F25E00D2148434019132176
:104E3000801989014018807800F0FCFA0146B878A2
:104E4000344BC2008218D218D2790095891AC9B29F
:104E50000CAA039201910290A06B837868461822F5
:104E6000825E817D04A8FFF7E3F871000EAA761C2C
:104E70005052F6B2B87827212A1849015118497AB8
:104E8000B142D1D8C0B22918272040010818407A71
:104E90000EA90C9AFFF7AEF80090E16B01200870A4
:104EA000E06B0E214170A06B4078E26B9070A06BBC
:104EB0004278032A06D04278042A06D04078052892
:104EC00005D007E00E48807902E00D9800E00098D8
:104ED000E26BD070A06B4078002808D10E48407B70
:104EE000002804D0E06B0170E16BF52048700749A1
:104EF0000120403988740FB0F0BD00002900002067
:104F0000AE0D0020020500006C0700006C090020B7
:104F1000930300008C6900008C030020F0B5044668
:104F20000920C0012618B16B85B088782A4A1389F8
:104F30000493528903924978284F0523BA781B02BB
:104F4000A218D218264D9176002805D0012803D04A
:104F500002280FD0032829D12046039A049900F093
:104F600087FD20481C490088AA7B49786B4607C307
:104F7000B87826E01948039A807821182720400144
:104F80000818C77F2046049900F072FD002F0FD04B
:104F9000124880782118272040010818C07FB842A5
:104FA00006D91321012089016118487005B0F0BDB0
:104FB0000C4809490088AA7B49786B4607C3074813
:104FC0008078039B2118272040010818C17FF06BCF
:104FD000049A00F059FFE9E70C01002029000020A5
:104FE0008C03002000000020F0B550210A5C1C4911
:104FF0008B780921C9014118934215D115235B0112
:10500000C318DC7A002C0FD19B7A002B0CD0D30074
:105010001B180524240282181D191720400112189C
:10502000ED79557700200EE0CA6B02201070C96B35
:105030000C204870F0BD1D182D19CE6B2D7A871CE1
:10504000F555401CC0B2557F8542F4D8CA6B5570E7
:10505000C96B0C200870034901208874F0BD000062
:10506000290000202C090020F0B54F210C5C2649B6
:105070008B780921C9014218A34212D115235B0183
:10508000C1188D7A002D0CD1497A002909D0C51C90
:10509000AC4600238C2725467D432D181946AE4685
:1050A0001AE0D16B02200870D16B0A204870F0BD65
:1050B000142675464E43AF1903263602BD19EE7B02
:1050C0006746F75D002F05D13546D76B9E1CBD5551
:1050D0005B1CDBB2491CC9B20C4D2D5D8D42E7D87B
:1050E000D16B4B700119152040010818C1780029B7
:1050F00003D0D36B00215970C170D16B0A200870A6
:10510000034901208874F0BD290000208069000057
:105110002C090020F0B5224B252149019C7842182A
:105120000923117BDB01C3188C4213D15279002A69
:1051300010D1272252018218927F002A0AD08900BA
:1051400009188E46C96BCC79097A22468C46002113
:10515000C01C14E0D96B02200870D96B1320487072
:10516000F0BD7546ED6B161BAD5D2E5C002E04D1B7
:10517000DF6B8E1CBD55491CC9B2521CD2B26245B0
:10518000EFD3D86B4170DA6B13201070002001E070
:10519000401CC0B28842FBD3024901208874F0BD94
:1051A000290000202C090020F0B51E4B25214901C3
:1051B0009C7841180923CA7ADB01C318944210D1A4
:1051C0000C79002C0DD1497900290AD091000918D9
:1051D000CA6B8E46117AD4798C4600222146C01CB7
:1051E00014E0D96B02200870D96B10204870F0BD14
:1051F0007546ED6B0E1BAD5D2E5C002E04D1DF6B92
:10520000961CBD55521CD2B2491CC9B26145EFD3A0
:10521000D86B4270D96B1020087003490120887444
:10522000F0BD0000290000202C090020F0B51E4A26
:105230004E2193780922095CD20182188B4214D145
:1052400015235B01C3185B7A002B0ED127235B016A
:10525000C3189B7F002B08D089000918CB6B8C46A4
:10526000DC791F7A2146C01C15E0D16B0220087042
:10527000D16B08204870F0BD6346DD6B0B1BED5C05
:105280002D5C002D01D0002500E00125D66B5B1CB4
:10529000F554491CC9B2B942EED3D16B082008704D
:1052A000024901208874F0BD290000202C0900204B
:1052B0000248016A012211430162704780300140B7
:1052C000002801DB0D2801D3FF2070470149085C4D
:1052D00070470000A7690000FFB50020054604469E
:1052E0000099E200511805238E461B02C918C9799E
:1052F0008C46002927D0002219E0734600219B1814
:105300009F190FE0019B3E795B5CF61A0936122E5D
:1053100001D8012300E000231843122E00D80125F4
:10532000491CC9B2029B9942ECD3521CD2B2052649
:1053300036029445E1D8002D04D00399039A0978E8
:10534000491C11700025641CE4B2022CC8D304B0BF
:10535000F0BD000000B5044AD160906000F006F88E
:10536000FF201330908000BDF8000020034800218A
:10537000C16081604060006070470000C80D00207F
:10538000F8B50D4E0025746812E0A068401EA060BC
:1053900000280CDC606821680746486003CC083CA4
:1053A000086065602560E06880473C4600E064680E
:1053B000B442EAD1F8BD0000C80D0020F7B500984E
:1053C000D2001718019903E003880B800830891C6C
:1053D000B842F9D3154CE068804760880028F9D0BE
:1053E0000020214648801248C0698047FFF7C8FF67
:1053F0000026009D019C15E00C480078002803D091
:105400000121B14001420AD02088401C80B2208096
:105410006988884203D36868804700202080A41CE4
:105420000835761CBD42D5D2E6E70000F800002022
:1054300000020010011E08DD054A0020135C8B42AB
:1054400004D0401CC0B20D28F8D3FF2070470000E4
:10545000A7690000F8B506461521490177182721EC
:10546000007825224901520134467118B51840349C
:105470000091030001F0D0F812585858580A5959B1
:1054800099BD99BDF9F9F9F7F758F658CD7B002D7C
:1054900002D1304601F026F80098007D032807D09D
:1054A000032D0ED2284600F05FFD00287AD102E0DD
:1054B000002000993DE12720711940010818407D26
:1054C00031E1032D2ED100990025CD73A3498978B0
:1054D000012906D1032804D20720FCF763F8012034
:1054E000BDE0E07A00281ED00020152149013218C5
:1054F0005218401C1570C0B295710328F7D30120D3
:1055000000F0DAFC7D72E572257365730520FCF707
:1055100049F8934818213018FAF7D0FE0321914832
:10552000FAF7CCFEF8BD7D72EEE0A57B032D10D21C
:10553000284600F019FD002807D188484119272086
:1055400040010818407D0028ECD0A07B401CA073CF
:10555000F8BD032DFCD10025A573207B002802D1C6
:10556000607B00281FD001207872BD723046FCF7A6
:1055700085F90B20FCF716F800210324774E24024E
:105580008C2200204A43921914234343D3181B1939
:10559000401CC0B21D720728F6D3491CC9B20329AA
:1055A000EED3F8BDC1E07D72ABE02C7B032C0FD2B3
:1055B000204600F0D9FC002806D1272031194001EF
:1055C0000818407D0028ECD0287B401C2873E8E7B1
:1055D000032CE6D100202873A97A002907D0A872ED
:1055E0000121697128710820FBF7DCFFD9E7687198
:1055F00087E0EF7A1446032F13D2384600F0B4FC4C
:1056000000280AD12721F01949014118497D0029B4
:1056100003D1001980790028C3D1E87A401CE872D0
:10562000BFE7032FBDD10027EF72687A6F710028A2
:105630002F7107D00098477400980774232000F05A
:10564000BFF802E00420FBF7ADFF00203118091974
:10565000401CC0B28F710328F8D36F72002000F095
:105660002BFC9EE752E02EE0FFE7E57B032D0FD2F7
:10567000284600F079FC002806D115207119400158
:105680000818007800288CD1E07B401CE07388E784
:10569000032D86D10025E573607B002811D0002002
:1056A000401CC0B20328FBD33046FBF7A1FF00200B
:1056B000401CC0B20328FBD30120B872FD720E203B
:1056C00092E7BD726FE7257C032D12D2284600F0C9
:1056D0004BFC002809D115207119400108180178E8
:1056E000002902D0807900289AD1207C401C2074A7
:1056F00057E7032D94D1002020740121F972B8726C
:105700007872002000F0D8FB04206DE70098272174
:10571000007C490103280ED2104A10184018017E5F
:10572000002902D1C07E00289BD000980099C07B40
:10573000401CC87335E7032893D1009900200874F2
:10574000B872787200F0B8FB0420FBF72BFF3046EC
:1057500000F064FA00990120487422E74C0400200C
:105760000205000030000020C106C90E012088405B
:10577000014908607047000080E100E08307FF22D4
:10578000DB0E9A408907090E994000280BDA0007C2
:10579000000F0838830808489B001818C369934312
:1057A0000B43C3617047830804489B0018180368C3
:1057B00093430B430360704700ED00E000E400E01A
:1057C00010B50446FDF750FB0848426A0120904797
:1057D00021460748FCF738F8054801468978C1702A
:1057E0001120FBF7DFFEFDF737FB10BD8001001035
:1057F000F803002018B5039C009400F0F7FC18BDD6
:1058000070B5FF2199310C5C002C19D005220021C4
:105810000125D20183180AE00C224A431218FF32F4
:105820008132D67E002E06D01D72491CC9B28C4230
:10583000F2D8012070BD168C0681928C4281F4E76B
:10584000002070BD10B501240548640404600548BB
:1058500041680548884702488038046010BD000050
:1058600080E100E08002001020020020FEB500254B
:105870005449064601950878514C534F00280ED0E4
:10588000387E0C2250430019FF308130828A4F4805
:10589000824200D24E482083002008704CE020460F
:1058A000FFF7AEFF002847D02089618948437D215A
:1058B000C900FAF71DFC2061E2684649904224D2F3
:1058C000454A90422DD20120009108734873087A0E
:1058D0000128387E0FD00C2148430119FF31813156
:1058E00088890F89E1687843C000FAF701FC0099C4
:1058F0008873278318E00C2148430119FF20813069
:10590000405AFF3141318F8FECE7087B487300200C
:10591000087308208873487B01280DD120892083D3
:1059200002E0487B012807D1AC210857FF211E3136
:10593000FEF7CEFA208BA080FF209930025D0DE0AB
:105940000C2068430019FF308130C17E01290BD043
:10595000008C218B884210D06D1CEDB2AA42EFD88A
:105960000198002808D008E0C38B218B8B42F3D824
:10597000008C814201D9EFE700250C204543A8198E
:10598000014660313546CA7EC035EA73897EA97307
:10599000002129747E21095A698280300188A982F8
:1059A0008188E98280882883314630460C22CE31B6
:1059B000DA30FAF76AFC208B288408486884FEBD38
:1059C0000C010020040000208C020020282300008D
:1059D000881300008C030020E8FD0000B80B0000D5
:1059E0000248C16940221143C1617047000800406C
:1059F00010B501240548A4040460054881680548E1
:105A0000884702488038046010BD000080E100E053
:105A1000800200102002002010B5054C2068806B29
:105A2000000501D5FDF72AF82068816B816310BD60
:105A3000F000002010B50020FCF706FA002813D073
:105A400001210020FCF7F6F90020FCF70FFA0028EE
:105A500001D0012400E000240020FCF700FA0146F8
:105A600022460248FDF7C5FC10BD00007801002069
:105A7000F8B500270646082405238C463D463846DF
:105A80001B023118C918897EA14201D16D1CEDB2EB
:105A9000401CC0B20328F4D300242046C100891959
:105AA000C918C979002901D0641CE4B2401CC0B2F5
:105AB0000328F3D33A480088824206D962467D2102
:105AC0005043C900FAF714FB01E036480069364933
:105AD000884201D3042245E005210902334A7118A6
