:020000040000FA
:10000000D8120020D5000000DD000000C53F000030
:1000100000000000000000000000000000000000E0
:10002000000000000000000000000000E1000000EF
:100030000000000000000000E30000004560000038
:10004000E7000000E7000000E7000000E700000014
:106C1000C1C1C1C1C1BF000000000000540B002071
:106C20000002000000000000000000000004010459
:106C3000030004000700080009000A00000000002B
:106C400000000000000001006C072C0101003C0F57
:106C500058020100F81158020000014000100140E4
:106C60000000000000000000000000000000000024
:046C700000E1F50545
:04000005000000C136
:00000001FF
